:02000000442B8F
:1000080070082000A3007108A2007208A1007D08F2
:10001800A0008031911D232891112400941D1A28D5
:1000280020003308013A031D1A288B124821141E98
:10003800232820003308013A031D23288B160B1DA3
:100048002A2820000B1138309500AF212000230802
:10005800F0002208F1002108F2002008FD00090044
:0C0068003A30FD00FD0B362800000800B7
:10007400833021009D0520005308F000F035F03551
:10008400700821009D0434209D149D1C4A28472893
:100094001C08F100F0011B08F0040030F104080012
:1000A4003A302000BE000030BF005330C0000030A2
:0E00B400C100F03021009E009D011D140800C7
:0E00C200522020005208D3003A201D100800E2
:1000D000F101F20180307206F0008030013A7002C6
:1000E000031D74285A3071020318892822008D15C7
:1000F0001730FD00FD0B7A28000000008D1127301D
:10010000FD00FD0B812800000000F10A0319F20A2E
:040110006A28080051
:10011400FB2801302000B9002708B5001D29260856
:10012400013A031DA4282F08B3002F08013A031D28
:100134009E280130D1009F28D1015118A3288B1289
:10014400A4288B161D290130D200612070082000DC
:10015400A4007108A5000230B9002408B5002508E0
:10016400B6001D290230D200612070082000A400CE
:100174007108A5000230B9002408B5002508B600AE
:100184001D290330D200612070082000A4007108EA
:10019400A5000230B9002408B5002508B6001D29C1
:1001A4000430D200612070082000A4007108A5006A
:1001B4000230B9002408B5002508B6001D29043012
:1001C400B9002A08B5002B08B6002C08B7002D0882
:1001D400B8000D131D292608043A031DF328013025
:1001E400B4001D290430B900B501B601B701B80146
:1001F4001D2920002E08003A03198B282E08023AE4
:10020400031991282E08103A0319A5282E08113A2B
:100214000319B4282E08123A0319C3282E08133AD6
:100224000319D2282E08303A0319E1282E08403A3F
:080234000319ED28F42808006D
:10023C00F101F20180307206F00080307002031D73
:10024C0029291630710203183E2922008D1517300A
:10025C00FD00FD0B2F29000000008D112730FD0043
:10026C00FD0B362900000000F10A0319F20A2029BF
:02027C00080078
:10027E0012001E00F003031D3F29F103031D3F2949
:02028E00080066
:1002900098292000A6012E3086000030870026080D
:1002A00086070318870A2400110881009612151684
:1002B000AE29151F5C2915132E30860000308700EB
:1002C0002000260886070318870A240011088100E9
:1002D0008A20A60A240096121516AE29951320002E
:1002E000A9013530840000308500290884070318EF
:1002F000850A00082400910096121516AE29951360
:100300002000A90A390829020318922935308400EF
:1003100000308500290884070318850A0008240096
:10032000910094292400910196121516AE29AE2948
:1003300024001408093A031949291408293A031911
:10034000592914080C3A03196E2914080D3A031997
:0E0350006E2914082C3A03197F2997290800FA
:10035E00A92A2000C401C5010D18B7290130A80033
:10036E00BE2A0D18BD29C40A0319C50A0D1CDD29A4
:10037E008030F000803045067002031DC829440805
:10038E00503C0318DA2980304506F00080307002A8
:10039E00031DD3296E3044020318DA290230A80057
:1003AE00C401C501DD29A801C401C501BE2A0D1C69
:1003BE00E329C40A0319C50A0D18052A8030F00076
:1003CE00803045067002031DEE294408253C0318B3
:1003DE00022A80304506F00080307002031DF92994
:1003EE00353044020318022A0330A800C401C501A7
:1003FE00C601C201052AA801C401C501BE2A0D18F5
:10040E000B2AC40A0319C50A0D1C3D2A8030F000C0
:10041E00803045067002031D162A4408033C03185B
:10042E00392A80304506F00080307002031D212AE3
:10043E00073044020318392A0430A800C401C5014C
:10044E004308FF3A031D382A0130C300A8012A08C9
:10045E00BA002B08BB002C08BC002D08BD002200E2
:10046E000D173D2A2000A801C401C501BE2A200097
:10047E000D1C442AC40A0319C50A0D18A82A803077
:10048E00F000803045067002031D4F2A4408033CDD
:10049E000318A52A80304506F00080307002031D37
:1004AE005A2A133044020318A52A2A30F3000030CA
:1004BE00F4004208F3070318F40A73088400740862
:1004CE0085000008F2007208F000F036730886000E
:1004DE007408870070088100C60A8030F0008030F2
:1004EE0045067002031D7D2A4408083C0318942A11
:1004FE002A30F1000030F2004208F1070318F20A28
:10050E00710884007208850080300007F0007108C1
:10051E00860072088700700881004608083A031D9D
:10052E009A2AC601C20A4208043A031DA02AFF30C5
:10053E00C3000330A800C401C501A82AA801C40144
:10054E00C501BE2A20002808003A0319B029280840
:10055E00013A0319B8292808023A0319DE29280896
:10056E00033A0319062A2808043A03193E2A0800FA
:10057E0020004A08CE004908CD004808CC004708A4
:10058E00CB0068203030FC004430FD00FD0BCD2A3E
:10059E00FC0BCD2A00002000D001043050020318BD
:1005AE00122BCF0108304F020318102B1E214B3097
:1005BE008400003085002000500884070318850A47
:1005CE004F08F2000130F0000030F10072080319FC
:1005DE00F42AF035F10DFF3EEE2A0008F00500304A
:1005EE00F105700871040319062B1230FC007830E7
:1005FE00FD00FD0B002BFC0B002B00000E2B06301C
:10060E00FC008B30FD00FD0B0A2BFC0B0A2BCF0AD6
:0A061E00D92AD00AD42A1E210800B0
:10062800133021009700F03099007E308C0017308D
:100638008D0022008C0112308D0024008C011230B4
:100648008D002200911393131E3023008C008D011E
:10065800522001309500383020009500C0308B00C2
:02066800080088
:10066A002400141394131E30950003309700503061
:0E067A009200940121009115240095160800AD
:10068800822314233523640020003408013A031D13
:10069800622B3308013A031D522B8B122F08C70017
:1006A8003008C8003108C9003208CA00BF2220003B
:1006B800B4013308013A031D622B8B16472B632BB9
:1007040067308400833085001A30F0000130F10036
:0C07140024308600003087003F210800E0
:0406CE0000340034C0
:0206D2000034F2
:0206D4000534EB
:0206D6000034EE
:0206D8000034EC
:0806DA00003400340034003448
:0A06E200003400340034003400340A
:0206EC000034D8
:0206EE000034D6
:0806F000003400340034003432
:0206F8000134CB
:0806FA00003400340034003428
:020000040001F9
:04000E00142F131682
:00000001FF
