:020000004E2B85
:1000080070082000A4007108A3007208A2007408F8
:10001800A1007D08A0008031911D252891112400A0
:10002800941D1C2820003708013A031D1C288B1238
:10003800AC21141E252820003708013A031D252865
:100048008B160B1D2C2820000B11383095003E22F2
:1000580020002408F0002308F1002208F2002108FB
:08006800F4002008FD0009006E
:0C0070003A30FD00FD0B3A2800000800AB
:10007C00833021009D0520005808F000F035F03544
:10008C00700821009D0438209D149D1C4E284B287F
:10009C001C08F100F0011B08F0040030F10408000A
:1000AC003E302000C4000030C5005830C60000307F
:0E00BC00C700F03021009E009D011D140800B9
:0E00CA00562020005708D8003E201D100800C8
:1000D8002000F801F9011030FC00710DF80DF90D40
:1000E8007408F8027508031C750FF90203188328B1
:1000F8007408F80775080318750FF9070310F00D51
:08010800F10DFC0B7128080049
:100110002000D401D5011A30F4000030F500520857
:10012000F0005308F1006C2071085502031D9A2855
:10013000700854020318AE2822008D152230FD00ED
:10014000FD0BA02800008D112230FD00FD0BA6281C
:0E01500000002000D40A0319D50A8B280800ED
:10015E00202901302000B1002C08AD0042293808BA
:10016E00013A031DC9282608B7002608013A031DC7
:10017E00C3280130D600C428D6015618C8288B12C1
:10018E00C9288B1642290130D7006520700820003F
:10019E00BD007108BE000230B1003D08AD003E0842
:1001AE00AE0042290230D700652070082000BD0045
:1001BE007108BE000230B1003D08AD003E08AE0031
:1001CE0042290330D700652070082000BD00710859
:1001DE00BE000230B1003D08AD003E08AE0042291F
:1001EE000430D700652070082000BD007108BE00E5
:1001FE000230B1003D08AD003E08AE004229043089
:10020E00B1003908AD003A08AE003B08AF003C081B
:10021E00B0000D1342293808043A031D1829013085
:10022E00B60042290430B100AD01AE01AF01B001FC
:10023E00422920002508003A0319B0282508023A61
:10024E000319B6282508103A0319CA282508113AA9
:10025E000319D9282508123A0319E8282508133A54
:10026E000319F7282508303A031906292508403ABC
:08027E000319122919290800D7
:1002860012001E00F003031D4329F103031D432939
:0202960008005E
:1002980020004B08CF004A08CE004908CD00480886
:1002A800CC002830D2002330D30088202F30FC0027
:1002B800BF30FD00FD0B5E29FC0B5E29000000002D
:1002C800D101043051020318A629D0010830500288
:1002D8000318A4293030D2000230D30088204C30D3
:1002E800840000308500510884070318850A5008E7
:1002F800F2000130F0000030F1007208031988297B
:10030800F035F10DFF3E82290008F0050030F105B7
:1003180070087104031999291230FC007330FD002C
:10032800FD0B9429FC0B9429A2290630FC00D0303F
:10033800FD00FD0B9D29FC0B9D290000D00A6A29B0
:10034800D10A65293030D2000230D3008820080055
:10035800FC292000B80125308600003087003808C5
:1003680086070318870A24001108810096121516BB
:10037800122A151FC0291513253086000030870062
:100388002000380886070318870A2400110881000E
:10039800AF20B80A240096121516122A95132000C9
:1003A800AA012D308400003085002A08840703182C
:1003B800850A00082400910096121516122A951332
:1003C8002000AA0A31082A020318F6292D308400D1
:1003D800003085002A0884070318850A00082400CD
:1003E8009100F8292400910196121516122A122A52
:1003F80024001408093A0319AD291408293A0319E5
:10040800BD2914080C3A0319D22914080D3A031906
:0E041800D22914082C3A0319E329FB29080005
:10042600133021009700F03099007E308C00173091
:100436008D0022008C0112308D00911393131E3013
:1004460023008C008D015620813095003830200025
:080456009500C0308B00080086
:10045E002400141394131E3095000330970050306F
:0E046E009200940121009115240095160800BB
:10047C00382B2000C101C2010D18462A0130AB00F7
:10048C004D2B0D184C2AC10A0319C20A0D1C6C2ADB
:10049C008030F000803042067002031D572A41085C
:1004AC00503C0318692A80304206F00080307002FC
:1004BC00031D622A6E3041020318692A0230AB0018
:1004CC00C101C2016C2AAB01C101C2014D2B0D1C33
:1004DC00722AC10A0319C20A0D18942A8030F0003E
:1004EC00803042067002031D7D2A4108253C03180A
:1004FC00912A80304206F00080307002031D882A59
:10050C00353041020318912A0330AB00C101C201FE
:10051C00BF01C001942AAB01C101C2014D2B0D18C2
:10052C009A2AC10A0319C20A0D1CCC2A8030F00089
:10053C00803042067002031DA52A4108033C0318B3
:10054C00C82A80304206F00080307002031DB02AA9
:10055C00073041020318C82A0430AB00C101C201A4
:10056C004308FF3A031DC72A0130C300AB01390809
:10057C00B2003A08B3003B08B4003C08B5002200B6
:10058C000D17CC2A2000AB01C101C2014D2B20005C
:10059C000D1CD32AC10A0319C20A0D18372B80303F
:1005AC00F000803042067002031DDE2A4108033C35
:1005BC000318342B80304206F00080307002031D8B
:1005CC00E92A133041020318342B3930F300003080
:1005DC00F4004008F3070318F40A73088400740845
:1005EC0085000008F2007208F000F03673088600EF
:1005FC007408870070088100BF0A8030F0008030DA
:10060C0042067002031D0C2B4108083C0318232BD7
:10061C003930F1000030F2004008F1070318F20AFB
:10062C00710884007208850080300007F0007108A2
:10063C00860072088700700881003F08083A031D85
:10064C00292BBF01C00A4008043A031D2F2BFF3091
:10065C00C3000330AB00C101C201372BAB01C10198
:10066C00C2014D2B20002B08003A03193F2A2B08FE
:10067C00013A0319472A2B08023A03196D2A2B0851
:10068C00033A0319952A2B08043A0319CD2A0800BA
:10069C008A2313222F22640020003608013A031DFE
:1006AC006B2B3708013A031D5C2B8B122608C800F4
:1006BC002708C9002808CA002908CB004C21B6011C
:0E06CC003708013A031D6B2B8B16512B6C2B3C
:1007140070308400833085001A30F0000130F1001D
:0C072400253086000030870043210800CB
:0A06E000003400340034003400340C
:0206EA000034DA
:0206EC000034D8
:0206EE000434D2
:0806F000003400340034003432
:0206F8000134CB
:0806FA00003400340034003428
:020702000034C1
:020704000034BF
:020706000034BD
:08070800003400340034003419
:04071000003400347D
:020000040001F9
:04000E00142F131682
:00000001FF
